:1000000022EF00F0F76A140FF66E000EF7220900D7
:10001000F55012003F065B4F666DFD07FF67EA6A09
:10002000080EE96EEF500DE0060E016E006A002E1C
:10003000FED7012EFBD77B0E006E002EFED7EF2ED3
:10004000F3D71200F86AD09EC150C00B0F09C16EE1
:10005000070EB46E000E956E936E8A6A8C6A056AFE
:10006000055009082DE3066A0650090827E30A0E21
:10007000086ED5DF076A075009081EE3010E8A6E75
:10008000036A0650F2CF08F0F29EBCDF08BEF28E83
:100090008C6E640E086EC3DF020E8A6E036A055012
:1000A000F2CF08F0F29EAEDF08BEF28E8C6E640EC8
:1000B000086EB5DF072ADFD7062AD6D7052AD0D79C
:0400C000CED7030094
:020000040030CA
:0E00000004CC380E0087A1000FC00FE00F40A7
:00000001FF
;PIC18LF4550
;CRC=F3FC  CREATED="02-abr-18 23:55"
