:1000000022EF00F0F76A140FF66E000EF7220900D7
:10001000F55012003F065B4F666DFD07FF67EA6A09
:10002000080EE96EEF500DE0060E016E006A002E1C
:10003000FED7012EFBD77B0E006E002EFED7EF2ED3
:10004000F3D71200F86AD09EC150C00B0F09C16EE1
:10005000070EB46E000E956E936E8A6A8C6A056AFE
:10006000055009082AE3066A0650090824E3076ACE
:10007000075004081EE3010E8A6E036A0650F2CF91
:1000800008F0F29EBFDF08BEF28E8C6E640E086E22
:10009000C6DF020E8A6E036A0550F2CF08F0F29EA8
:1000A000B1DF08BEF28E8C6E640E086EB8DF072AD0
:0E00B000DFD7062AD9D7052AD3D7D1D7030028
:020000040030CA
:0E00000004CC380E0087A1000FC00FE00F40A7
:00000001FF
;PIC18LF4550
;CRC=B0BD  CREATED="12-abr-18 13:07"
