:10000000EBEF03F00C4C6579656E646F204144435F
:1000100000000C4144433A2025344C7500000A5638
:100020006F6C74616A653A2025312E346656000083
:10003000EA6A190EE96EEF500DE0060E016E006AD5
:10004000002EFED7012EFBD77B0E006E002EFED7B2
:10005000EF2EF3D712002038F00B006E0F0E8A142B
:1000600000108A6E00008A80020E006E002EFED7FD
:1000700000D000008A9012008150006E00380F0BF3
:10008000016E12000F0E9314F009936E8A84000023
:100090008A800000F1DF01C020F08A9000008A8091
:1000A00000D000D00000E8DF01C01FF08A900F0EE2
:1000B0009314936E2038006EF00E001600501F103F
:1000C000016E68EF00F09390939293948A92DAD73E
:1000D00001C01FF001BEFBD78A921DB08A820000CA
:1000E0008A9400008A901E381F6E0F0E1F161FC0C4
:1000F00020F0B1DF1E500F0B1F6E206EACDF120020
:10010000280E0C6E0C0E0D6E010E0E6E060E0F6E8E
:100110008A908A928A940F0E9314936E939093927E
:1001200093940F0E196E84DF010E0B6E0B500308B3
:1001300008E3030E206E8FDF050E196E79DF0B2AA0
:10014000F5D7020E206E87DF050E196E71DF0B6A80
:100150000B5003080FE3036A0B500C0FE96E000EFF
:100160000320EA6EEFCF10F01D6A10C01EF0ABDF67
:100170000B2AEED7FDEF03F01A2C01D003D0400E6E
:100180001B6E01D01B6A010E195C1B261B508009D7
:100190001C6E1D6A1E6E97DF12001850070A07E0DA
:1001A0000B0A0AE0060A10E0020A14E018D0010E59
:1001B000196E1A6EE1DF18D01D6A010E1E6E83DF04
:1001C000020E196E35DF10D0010E196E020E1A6E76
:1001D000D3DF0AD01D6A100E1E6E75DF05D0010E2A
:1001E0001D6E18C01EF06FDF12000900F5520CE002
:1001F000F6CF0BF0F7CF0CF0F5CF18F0CEDF0BC039
:10020000F6FF0CC0F7FFF1D718EF04F00900F6CFA6
:100210000CF0F7CF0DF0F5CF18F0BFDF0CC0F6FFF4
:100220000DC0F7FF0B2EF2D71200EACF13F0E9CF83
:1002300012F00C38F0090E6E0E26E20F0F6E320F20
:10024000116E0C500F0B0F260F261126E90F106EA2
:10025000102610260B380F0B1026112610361136DB
:10026000111E11360B500F0B11260E36070E0D6E98
:100270000A0E10061126FDE30F061026FDE30E06FA
:100280000F26FDE30D060E26FDE3EA6A0D0EE96E6C
:10029000070E1214129CE926000EEA22E9501108FA
:1002A00003E1EA5201E1128CEF50006E08E112BC4A
:1002B00006D012B813D012B602D0200E03D0128688
:1002C0001298300E0026EACF0CF0E9CF0BF000C0F8
:1002D00018F063DF0CC0EAFF0BC0E9FFEE5012AC70
:1002E000DDD737EF04F00B500D02F3CF01F0F4CF60
:1002F00000F00E02F35000260C500D02F3500020C7
:10030000026E3FEF04F08E0E006E0EC001F00DC0C5
:1003100002F0036A015209E102C001F0026A080E0C
:10032000005E015202E1006A08D0D89001BE04D0FC
:10033000023601360006F9D7019E48EF04F00D5051
:10034000D8B4A5D0196E1150D8B4A1D0195E05E368
:100350007F0E1926D8B09BD006D0810E195ED8A08A
:1003600096D0D8B494D019C000F0016A026A036A2A
:10037000186A0EC017F0178E0FC016F010C015F0D7
:10038000190E196E1450155E0DE2010E165E0AE28A
:10039000175E08E2185E06E2182A172A162A145079
:1003A000152628D01350165E12E2010E175E0FE2DA
:1003B000185E0DE2182A172A135016261450152617
:1003C00019E3162A17E1172A15E1182A13D012503B
:1003D0008009175E0EE2010E185E0BE2182A125019
:1003E0008009172613501626E9E3172AE7E1182A91
:1003F000E5D70380192E01D00BD0D89015361636CC
:1004000017361836D8900336023601361A36BAD760
:100410001AA006D0D8900132023203321A3202D02A
:10042000000635E01ABE1ED0D8901536163617369F
:1004300018361450155E07E2010E165E04E2175ED0
:1004400002E2185E1AE31350165E05E2010E175E13
:1004500002E2185E12E312508009175E03E2010EF9
:10046000185E0BE3032A09E1022A07E1012A05E1EC
:10047000002A0DE00132023203320EC019F0125090
:10048000191A19AE02D0018E06D0019E04D0006A5E
:10049000016A026A036A58EF04F01850D8B471D0A8
:1004A000006E1C50D8B46DD0002604E3810E0026E7
:1004B00068E204D07F0E005E64E363E019C020F0C0
:1004C0001D50201A198E1D8E1B501F02F4CF22F0D2
:1004D0001A501E02F4CF03F0F3CF21F01F02F350A5
:1004E0002226F4502122000E03221B501E02F3503C
:1004F0002226F4502122000E026A03220222195001
:100500001F02F3502126F4500322000E022219503C
:100510001E02F3500326F4500222000E016A01224B
:100520001B501D02F3502126F4500322000E02221C
:1005300001221A501D02F3500326F4500222000E2D
:10054000012219501D02F3500226F4500122002A04
:1005500001BE05D021360336023601360006000EF4
:1005600021AE0AD0032A02220122015005E10250E5
:1005700003E1035001E1002A20BE018E20AE019E5E
:1005800004D0006A016A026A036A42EF03F018505D
:10059000B608186E036A19C01CF0198ED89019326B
:1005A0001A321B320332023201320032182EF6D7D1
:1005B0001CAE0BD0001E011E021E031E002AD8B462
:1005C000012AD8B4022AD8B4032A55EF03F0D8B2CE
:1005D00003D0EA6A200EE96E006A016A026A036AC1
:1005E000206A216A226A236A1F501E101D101C10E7
:1005F0002CE0200E246ED890183619361A361B3689
:1006000020362136223623361F50235C08E11E5047
:10061000225C05E11D50215C02E11C50205C0FE3CF
:100620001C50205E1D50D8A01D3C215E1E50D8A03D
:100630001E3C225E1F50D8A01F3C235ED88000368F
:10064000013602360336242ED6D720C0EFFF21C054
:10065000ECFF22C0ECFF23C0ECFF1200E950106E4B
:100660000F50126E19E00EC01BF00DC01AF00CC036
:1006700019F00BC018F01F6A1E6A200E1D6E820E44
:100680001C6E0BD703C00EF002C00DF001C00CF0C1
:1006900000C00BF0122EE7D70EC01BF00DC01AF0F1
:1006A0000CC019F00BC018F072D703C00EF002C0D6
:1006B0000DF001C00CF000C00BF00EAE0DD0100616
:1006C000108A0B1E0C1E0D1E0E1E0B2AD8B40C2AEF
:1006D000D8B40D2AD8B40E2A3B0E176E9A0E166E99
:1006E000CA0E156E146A0A0E126E0F50D8B4102A74
:1006F000D882EA6A0B0EE96E0EC01BF00DC01AF02C
:100700000CC019F00BC018F017C01FF016C01EF077
:1007100015C01DF014C01CF05ADF015000520FE14B
:100720000F28125C0CE010500CE00F0B125C01E083
:1007300037E210BE35D010BC04D0200E2DD0200ED4
:10074000101610AA0CD0109A0F50D8A41006005002
:10075000106E2D0E186E21DD1050006E106A0F50B5
:10076000125C0AE10050106E2E0E186E16DD10504D
:10077000006E200E1016000E300E10AA0DD0109A2A
:100780000F50D8A410060050106E2D0E186E05DD07
:100790001050006E106A300E002600C018F0FDDC0C
:1007A000D89217C01BF016C01AF015C019F014C06B
:1007B00018F01F6A1E6A1D6A0A0E1C6E08DF03C04D
:1007C00017F002C016F001C015F000C014F0122E90
:1007D0008FD774EF04F0F86AD09EC150C00B0F0998
:1007E000C16E070EB46E066A056A0A6A096A086A6B
:1007F000076A000E956E8C6A83D40A0E196E18DC97
:10080000C050C00B0709C06EC08EC280C150C00B63
:100810000E09C16E000E016EC250C30B0110C26EF4
:10082000640E196E05DC040EF66E000EF76EDDD454
:10083000040E0B6EE10E196E18EC00F00B2EFAD7B9
:10084000C282C2B2FED7C3CF05F0C4CF06F005C046
:100850008CFF120EF66E000EF76E060E0B6ED6DCD7
:10086000010EE96E06C00CF005C00BF0DED40C6A78
:10087000050E0B6E06C00EF005C00DF034D502C09B
:100880000CF001C00BF002C00EF001C00DF03BD522
:1008900003C010F002C00FF001C00EF000C00DF058
:1008A000146AC00E136E7F0E126E880E116E47D53D
:1008B00003C00AF002C009F001C008F000C007F050
:1008C0001E0EF66E000EF76E0A0E0B6E9FDC890E82
:1008D000E96E0AC00EF009C00DF008C00CF007C0A8
:1008E0000BF0040E0F6EBAD6560E186E56DC320E92
:0A08F000196E18EC00F0A4D7030005
:020000040030CA
:0E00000004CC380E0087A1000FC00FE00F40A7
:00000001FF
;PIC18F4550
;CRC=F6F2  CREATED="17-abr-18 15:42"
