:100000009DEF01F0EA6A120EE96EEF500DE0060E68
:10001000016E006A002EFED7012EFBD77B0E006E0C
:10002000002EFED7EF2EF3D71200030E135E09E366
:10003000EA6A130EE96EEF5004E001D000D0EF2E13
:10004000FDD71200949A8B9A020E126EF90E136E5F
:10005000ECDF122EFBD7948A020E126EF90E136E8D
:10006000E4DF122EFBD7948A1200136A135007089C
:100070001DE3949A8B9A020E006E002EFED700D0DC
:100080000000D890123202E28B9A01D08B8A949AA7
:10009000630E006E002EFED700D0948A020E006E12
:1000A000002EFED700D00000132AE0D71200126AFB
:1000B000125007081DE3949A8B9A020E006E002ED0
:1000C000FED700D00000948A0C0E006E002EFED7E2
:1000D00000D00000948A82BA02D0D89001D0D88093
:1000E0001332C70E006E002EFED700D0122AE0D7C2
:1000F00013C001F012008E0E006E13C001F012C08A
:1001000002F0036A13AE05D0011E021E022A01E1AD
:10011000012A015209E102C001F0026A080E005EE4
:10012000015202E1006A0AD0D89001BE04D0023622
:1001300001360006F9D713BE01D0019E72EF01F01F
:100140001650D8B4A5D0226E1A50D8B4A1D0225ED1
:1001500005E37F0E2226D8B09BD006D0810E225E0A
:10016000D8A096D0D8B494D022C000F0016A026A18
:10017000036A216A17C020F0208E18C01FF019C032
:100180001EF0190E226E1D501E5E0DE2010E1F5E46
:100190000AE2205E08E2215E06E2212A202A1F2AC6
:1001A0001D501E2628D01C501F5E12E2010E205E3C
:1001B0000FE2215E0DE2212A202A1C501F261D502D
:1001C0001E2619E31F2A17E1202A15E1212A13D040
:1001D0001B508009205E0EE2010E215E0BE2212AF7
:1001E0001B50800920261C501F26E9E3202AE7E146
:1001F000212AE5D70380222E01D00BD0D8901E36BD
:100200001F3620362136D890033602360136233683
:10021000BAD723A006D0D89001320232033223325B
:1002200002D0000635E023BE1ED0D8901E361F3601
:10023000203621361D501E5E07E2010E1F5E04E2CD
:10024000205E02E2215E1AE31C501F5E05E2010EF1
:10025000205E02E2215E12E31B508009205E03E271
:10026000010E215E0BE3032A09E1022A07E1012ABC
:1002700005E1002A0DE001320232033217C022F0FC
:100280001B50221A22AE02D0018E06D0019E04D04D
:10029000006A016A026A036A88EF01F0096AD2DE25
:1002A000CC0E126EE2DE440E126EDFDE095204E165
:1002B000FEDE01C009F0FAD7C5DECC0E126ED5DE27
:1002C000BE0E126ED2DEF3DE01C00AF0F0DE01C017
:1002D0000BF00BC00DF00AC00CF00DC013F00CC0F9
:1002E00012F009D703C015F002C014F001C013F0DA
:1002F00000C012F003C019F002C018F001C017F0DE
:1003000000C016F01D6A1C6A1B6A830E1A6E18D78D
:1003100003C011F002C010F001C00FF000C00EF0D9
:10032000C80E126E6FDE0EC000F00FC001F010C0DC
:1003300002F011C003F0C8EF01F0F86AD09EC1507E
:10034000C00B0F09C16E070EB46E086A076A066A11
:10035000056AC150C00B0F09C16EC290C69A949E27
:1003600093809392010EC66E000EC76E880ED56EF6
:10037000CD6A000ECA6E000ECB6E700ED36ED350D7
:10038000040E096EFA0E126E3DDE092EFBD786D7DB
:1003900003C008F002C007F001C006F000C005F07D
:0403A000F6D7030089
:020000040030CA
:0E00000004CC380E0087A1000FC00FE00F40A7
:00000001FF
;PIC18F4550
;CRC=93BD  CREATED="01-abr-18 18:29"
