:1000000015EF00F0EA6A070EE96EEF500DE0060EFC
:10001000016E006A002EFED7012EFBD77B0E006E0C
:10002000002EFED7EF2EF3D71200F86AD09EC150F3
:10003000C00B0F09C16E070EB46E066A056A000E8A
:10004000956E8C6AC050C00B0709C06EC08EC2800E
:10005000C150C00B0E09C16E000E016EC250C30B21
:100060000110C26E0A0E076ECDDFC282C2B2FED789
:10007000C3CF05F0C4CF06F005C08CFF0A0E076E93
:06008000C1DFF3D703000D
:020000040030CA
:0E00000004CC380E0087A1000FC00FE00F40A7
:00000001FF
;PIC18F4550
;CRC=1BE2  CREATED="04-abr-18 05:31"
