:1000000077EF01F0F76A140FF66E000EF722090081
:10001000F55012003132333435363738392A30232F
:100020000C4C6973746F00000C44696769746F3A13
:1000300020256300EA6A0E0EE96EEF500DE0060E11
:10004000016E006A002EFED7012EFBD77B0E006EDC
:10005000002EFED7EF2EF3D712001438F00B006EEF
:100060000F0E8C1400108C6E00008C80020E006E3F
:10007000002EFED700D000008C9012008350006E3E
:1000800000380F0B016E12000F0E9514F009956EDB
:100090008C8400008C800000F1DF01C014F08C9093
:1000A00000008C8000D000D00000E8DF01C013F019
:1000B0008C900F0E9514956E1438006EF00E00168D
:1000C00000501310016E6AEF00F095909592959490
:1000D0008C92DAD701C013F001BEFBD78C9211B01D
:1000E0008C8200008C9400008C901238136E0F0EDE
:1000F000131613C014F0B1DF12500F0B136E146EF1
:10010000ACDF1200280E0A6E0C0E0B6E010E0C6E88
:10011000060E0D6E8C908C928C940F0E9514956E2D
:100120009590959295940F0E0E6E84DF010E096ED8
:100130000950030808E3030E146E8FDF050E0E6EE0
:1001400079DF092AF5D7020E146E87DF050E0E6ED1
:1001500071DF096A095003080FE3036A09500A0FA7
:10016000E96E000E0320EA6EEFCF0EF0116A0EC0AA
:1001700012F0ABDF092AEED785EF01F086EF01F030
:100180000E2C01D003D0400E0F6E01D00F6A010E6D
:100190000D5C0F260F508009106E116A126E95DFEC
:1001A00012000C50070A07E00B0A0AE0060A10E0EA
:1001B000020A14E018D0010E0D6E0E6EE1DF18D0A9
:1001C000116A010E126E81DF020E0E6E33DF10D047
:1001D000010E0D6E020E0E6ED3DF0AD0116A100EE4
:1001E000126E73DF05D0010E116E0CC012F06DDFC0
:1001F00012000900F5520CE0F6CF09F0F7CF0AF033
:10020000F5CF0CF0CEDF09C0F6FF0AC0F7FFF1D73B
:100210008EEF01F0096A042A0450210852E20750C7
:1002200005E0010A07E0030A09E00BD0DE0E956E37
:10023000836E07D0BE0E956E836E03D07E0E956ED4
:10024000836E05A009D083501E0B1E0804E10590A3
:1002500006C009F0066A34D083501E0B1E082BE03E
:100260008350020B02E10A6A11D08350040B03E1B0
:10027000010E0A6E0BD08350080B03E1020E0A6ECA
:1002800005D08350100B02E1030E0A6E0A50030DD5
:10029000F3500C6A0B6E036A07500B24016E0C506E
:1002A00003220150F2CF0BF0F29EACDE0BBEF28EB9
:1002B000066E058005D0072A0750030801E1076A8A
:1002C000046AFE0E956E09C001F08FEF01F009007F
:1002D000F6CF0AF0F7CF0BF0F5CF0CF062DF0AC0D3
:1002E000F6FF0BC0F7FF092EF2D79AEF01F0F86A7C
:1002F000D09EC150C00B0F09C16E070EB46E0590A1
:10030000046A0590066A076AFDD638D7640E0E6E39
:1003100091DE200EF66E000EF76E6BD77BD701C014
:1003200008F008520AE0280EF66E000EF76E090E6D
:10033000096ECDD708C00CF034DF640E0E6E7ADE85
:04034000EDD70300F2
:020000040030CA
:0E00000004CC380E0087A1000FC00FE00F40A7
:00000001FF
;PIC18F4550
;CRC=AEB1  CREATED="13-abr-18 05:41"
