:1000000015EF00F0EA6A050EE96EEF500DE0060EFE
:10001000016E006A002EFED7012EFBD77B0E006E0C
:10002000002EFED7EF2EF3D71200F86AD09EC150F3
:10003000C00B0F09C16E070EB46EFF0E936E000E5B
:10004000946E8A6A8B6A81A006D08B808B92050E93
:10005000056ED8DF01D08B6A81A206D08B908B828F
:10006000050E056ECFDF01D08B6A81A004D081A27E
:0A00700002D08B908B92E7D70300BB
:020000040030CA
:0E00000004CC380E0087A1000FC00FE00F40A7
:00000001FF
;PIC18LF4550
;CRC=CEE4  CREATED="03-abr-18 02:51"
