:1000000015EF00F0EA6A050EE96EEF500DE0060EFE
:10001000016E006A002EFED7012EFBD77B0E006E0C
:10002000002EFED7EF2EF3D71200F86AD09EC150F3
:10003000C00B0F09C16E070EB46EFF0E936E000E5B
:10004000946E8A6A8B6A81A008D081B206D08B80B8
:100050008B92050E056ED6DF01D08B6A81A208D087
:1000600081B006D08B908B82050E056ECBDF01D060
:060070008B6AE9D70300D2
:020000040030CA
:0E00000004CC380E0087A1000FC00FE00F40A7
:00000001FF
;PIC18LF4550
;CRC=1845  CREATED="19-abr-18 13:29"
