:10000000DFEF01F0EA6A1F0EE96EEF500DE0060E19
:10001000016E006A002EFED7012EFBD77B0E006E0C
:10002000002EFED7EF2EF3D712002750D8B471D090
:10003000006E2B50D8B46DD0002604E3810E00264C
:1000400068E204D07F0E005E64E363E028C02FF016
:100050002C502F1A288E2C8E2A502E02F4CF31F0DD
:1000600029502D02F4CF03F0F3CF30F02E02F350DD
:100070003126F4503022000E03222A502D02F35074
:100080003126F4503022000E026A03220222285048
:100090002E02F3503026F4500322000E0222285084
:1000A0002D02F3500326F4500222000E016A0122B1
:1000B0002A502C02F3503026F4500322000E022264
:1000C000012229502C02F3500326F4500222000E84
:1000D000012228502C02F3500226F4500122002A5B
:1000E00001BE05D030360336023601360006000E5A
:1000F00030AE0AD0032A02220122015005E102504B
:1001000003E1035001E1002A2FBE018E2FAE019EB4
:1001100004D0006A016A026A036A1200800ED8B233
:10012000281A2D6A2E6A24C02CF028502C1A23502D
:10013000D8B4DCD02B6E006E2750D8B4E0D02B5E44
:10014000D8B481D03DE328C031F0318E29C030F0E1
:100150002AC02FF02E6AD890313230322F322E3210
:100160002B2EF8D72CAE03D02D80DDD02D902B90E8
:100170002D88EA6A260EE96EE9D02D982CBE0AD0A9
:100180002BA013D0313230322F322E32002AD8B485
:10019000C5D00BD031BE0CD0D8902E362F3630368D
:1001A00031360006D8B4BAD0F5D72D8C6BD02D9C43
:1001B00024C02CF024AE02D0318EA9D0319EA7D01D
:1001C00027C02BF027C000F023502B5E24C031F055
:1001D000318E25C030F026C02FF02E6AD8903132F3
:1001E00030322F322E322B2EF8D72CAE03D02D8268
:1001F0009AD02D922B902D8AEA6A2A0EE96EA6D00B
:100200002D9A2CBE0AD02BA013D0313230322F328F
:100210002E32002AD8B482D00BD031BE0CD0D89068
:100220002E362F36303631360006D8B477D0F5D793
:100230002D8E28D02D9E28C02CF028AE02D0318ED5
:1002400066D0319E64D028C031F0318E29C030F0A4
:100250002AC02FF02CAE04D0319E2D8464D02D9472
:100260002E6A2B90EA6A260EE96E70D02CBE1CD046
:1002700024C02CF02BA006D0313230322F322E3257
:10028000002A4CE02EAE0BD02F2A09E1302A07E1DC
:10029000312A05E1313230322F32002A3FE02DBCC5
:1002A00086D72DBEC7D71CD0800E311A31AE04D0F0
:1002B0003AD028C02CF00AD024C02CF0315206E1EC
:1002C000305204E12F5202E1006A21D031BE08D041
:1002D000D8902E362F3630363136002EF7D71ED036
:1002E0002CAE02D0318E13D0319E11D027C000F039
:1002F00028C031F029C030F02AC02FF008D023C028
:1003000000F024C031F025C030F026C02FF031C0FD
:1003100001F030C002F02FC003F034D0006A016A4F
:10032000026A036A2FD02E6A2F1E301E311E2E1E27
:100330002E2A05E12F2A03E1302A01E1312A2DB0CE
:1003400015D72DB256D72DB48AD7B3D7EF502F2655
:1003500005E3302A03E1312AD8B42B80ED52EF5067
:10036000302603E3312AD8B42B80ED52EF50EFBE94
:1003700001D0800A3126D8B02B802DB8FED62DBAF8
:100380003FD774D712008E0E006E28C001F027C030
:1003900002F0036A015209E102C001F0026A080E8C
:1003A000005E015202E1006A08D0D89001BE04D07C
:1003B000023601360006F9D7019E4DEF02F0F86AC9
:1003C000D09EC150C00B0F09C16E070EB46E086AF3
:1003D000076A400E066E7E0E056E640E096E0D6A8B
:1003E0000C6A0B6A0A6A116A106A0F6A0E6AC050B8
:1003F000C00B0709C06EC09EC280C150C00B0E0961
:10040000C16E000E016EC250C30B0110C26E640EAD
:100410001F6EF8DD156A146A136A126A196A186A7F
:10042000176A166AC282C2B2FED7C4CF03F0C3CF26
:100430001AF008C02AF007C029F006C028F005C04D
:1004400027F015C02EF014C02DF013C02CF012C0F0
:100450002BF0EBDD03C022F002C021F001C020F040
:1004600000C01FF0D882266A256A246A7F0E236E98
:1004700008C02AF007C029F006C028F005C027F000
:100480004DDE03C026F002C025F001C024F000C0FC
:1004900023F0286A1AC027F076D726C02AF025C094
:1004A00029F024C028F023C027F003C02EF002C09A
:1004B0002DF001C02CF000C02BF0B7DDD89222C087
:1004C00026F021C025F020C024F01FC023F003C077
:1004D0002AF002C029F001C028F000C027F01EDE7B
:1004E00003C01EF002C01DF001C01CF000C01BF0D4
:1004F0001EC015F01DC014F01CC013F01BC012F07C
:0A05000009C01FF07FDD86D703005D
:020000040030CA
:0E00000004CC380E0087A1000FC00FE00F40A7
:00000001FF
;PIC18LF4550
;CRC=EC28  CREATED="01-abr-18 17:00"
