:1000000015EF00F0EA6A070EE96EEF500DE0060EFC
:10001000016E006A002EFED7012EFBD77B0E006E0C
:10002000002EFED7EF2EF3D71200F86AD09EC150F3
:10003000C00B0F09C16E070EB46E000E936E8A6A74
:10004000056A05C006F0061E06C08AFFFA0E076E96
:10005000D9DF052AF6D78A6A020E066EFA0E076EF7
:10006000D1DF062EFBD78A688A6A020E066EFA0E68
:10007000076EC8DF062EFBD78A68020E066EFA0EE0
:0C008000076EC0DF062EFBD7DBD70300A5
:020000040030CA
:0E00000004CC380E0087A1000FC00FE00F40A7
:00000001FF
;PIC18F4550
;CRC=8329  CREATED="10-abr-18 12:54"
