:1000000023EF00F0F76A140FF66E000EF7220900D6
:10001000F55012003F065B4F666DFD07FF67EA6A09
:10002000070EE96EEF500DE0060E016E006A002E1D
:10003000FED7012EFBD77B0E006E002EFED7EF2ED3
:10004000F3D73FEF00F0F86AD09EC150C00B0F0904
:10005000C16E070EB46E000E956E056A0550090854
:1000600012E3036A0550F2CF06F0F29ECBDF06BE24
:10007000F28E8C6E020E066EFA0E076ED0D7062E2A
:0A008000FBD7052AEBD7E9D70300F0
:020000040030CA
:0E00000004CC380E0087A1000FC00FE00F40A7
:00000001FF
;PIC18LF4550
;CRC=1D8F  CREATED="02-abr-18 22:11"
