:1000000015EF00F0EA6A0B0EE96EEF500DE0060EF8
:10001000016E006A002EFED7012EFBD77B0E006E0C
:10002000002EFED7EF2EF3D71200F86AD09EC150F3
:10003000C00B0F09C16E070EB46E000E936E946E66
:10004000956E8A6A8B6A8C6AC050C00B0709C06EB5
:10005000C08EC280C150C00B0B09C16E0A0E0B6E60
:10006000D1DF000E016EC250C30B0110C26E0A0E2A
:100070000B6EC8DFC282C2B2FED7C3CF05F0C4CFB9
:1000800006F005C08AFF320E0B6EBCDF040E016E57
:10009000C250C30B0110C26E0A0E0B6EB3DFC282D8
:1000A000C2B2FED7C3CF07F0C4CF08F007C08BFFA2
:1000B000320E0B6EA7DF080E016EC250C30B01108B
:1000C000C26E0A0E0B6E9EDFC282C2B2FED7C3CFD3
:1000D00009F0C4CF0AF009C08CFF320E0B6E92DF1C
:0400E000C0D7030082
:020000040030CA
:0E00000004CC380E0087A1000FC00FE00F40A7
:00000001FF
;PIC18F4550
;CRC=0049  CREATED="07-may-18 04:35"
