:10000000D8EF03F00C4C6579656E646F0A74656D0A
:10001000706572617475726100000C254C75206208
:100020006974732025322E3466560A2566204300F3
:10003000EA6A1D0EE96EEF500DE0060E016E006AD1
:10004000002EFED7012EFBD77B0E006E002EFED7B2
:10005000EF2EF3D712002438F00B006E0F0E8C1425
:1000600000108C6E00008C80020E006E002EFED7F9
:1000700000D000008C9012008350006E00380F0BEF
:10008000016E12000F0E9514F009956E8C8400001D
:100090008C800000F1DF01C024F08C9000008C8087
:1000A00000D000D00000E8DF01C023F08C900F0EDC
:1000B0009514956E2438006EF00E00160050231033
:1000C000016E68EF00F09590959295948C92DAD736
:1000D00001C023F001BEFBD78C9221B08C820000BE
:1000E0008C9400008C902238236E0F0E231623C0B0
:1000F00024F0B1DF22500F0B236E246EACDF120010
:10010000280E106E0C0E116E010E126E060E136E7E
:100110008C908C928C940F0E9514956E9590959270
:1001200095940F0E1D6E84DF010E0F6E0F500308A5
:1001300008E3030E246E8FDF050E1D6E79DF0F2A94
:10014000F5D7020E246E87DF050E1D6E71DF0F6A74
:100150000F5003080FE3036A0F50100FE96E000EF3
:100160000320EA6EEFCF14F0216A14C022F0ABDF57
:100170000F2AEED7F4EF03F01E2C01D003D0400E6F
:100180001F6E01D01F6A010E1D5C1F261F508009C3
:10019000206E216A226E97DF12001C50070A07E0CA
:1001A0000B0A0AE0060A10E0020A14E018D0010E59
:1001B0001D6E1E6EE1DF18D0216A010E226E83DFF4
:1001C000020E1D6E35DF10D0010E1D6E020E1E6E6A
:1001D000D3DF0AD0216A100E226E75DF05D0010E22
:1001E000216E1CC022F06FDF12000900F5520CE0F6
:1001F000F6CF0FF0F7CF10F0F5CF1CF0CEDF0FC029
:10020000F6FF10C0F7FFF1D7FCEF03F08E0E006E83
:1002100010C001F00FC002F0036A015209E102C0F0
:1002200001F0026A080E005E015202E1006A08D085
:10023000D89001BE04D0023601360006F9D7019EDF
:1002400012001C50D8B471D0006E2050D8B46DD0BC
:10025000002604E3810E002668E204D07F0E005ED3
:1002600064E363E01DC024F02150241A1D8E218E0A
:100270001F502302F4CF26F01E502202F4CF03F0C9
:10028000F3CF25F02302F3502626F4502522000E4A
:1002900003221F502202F3502626F4502522000E7E
:1002A000026A032202221D502302F3502526F45035
:1002B0000322000E02221D502202F3500326F450A6
:1002C0000222000E016A01221F502102F35025264E
:1002D000F4500322000E022201221E502102F3508C
:1002E0000326F4500222000E01221D502102F35079
:1002F0000226F4500122002A01BE05D0253603361D
:10030000023601360006000E25AE0AD0032A02226C
:100310000122015005E1025003E1035001E1002AEE
:1003200024BE018E24AE019E04D0006A016A026AD6
:10033000036A12001350D8B4A5D01F6E1750D8B45A
:10034000A1D01F5E05E37F0E1F26D8B09BD006D03C
:10035000810E1F5ED8A096D0D8B494D01FC000F0F4
:10036000016A026A036A1E6A14C01DF01D8E15C060
:100370001CF016C01BF0190E1F6E1A501B5E0DE20A
:10038000010E1C5E0AE21D5E08E21E5E06E21E2AE7
:100390001D2A1C2A1A501B2628D019501C5E12E256
:1003A000010E1D5E0FE21E5E0DE21E2A1D2A19506F
:1003B0001C261A501B2619E31C2A17E11D2A15E1D9
:1003C0001E2A13D0185080091D5E0EE2010E1E5E1B
:1003D0000BE21E2A185080091D2619501C26E9E33D
:1003E0001D2AE7E11E2AE5D703801F2E01D00BD07E
:1003F000D8901B361C361D361E36D8900336023672
:1004000001362036BAD720A006D0D8900132023269
:100410000332203202D0000635E020BE1ED0D89034
:100420001B361C361D361E361A501B5E07E2010EA7
:100430001C5E04E21D5E02E21E5E1AE319501C5EA1
:1004400005E2010E1D5E02E21E5E12E318508009F5
:100450001D5E03E2010E1E5E0BE3032A09E1022A80
:1004600007E1012A05E1002A0DE0013202320332E0
:1004700014C01FF018501F1A1FAE02D0018E06D0F4
:10048000019E04D0006A016A026A036A1200EACF80
:1004900017F0E9CF16F01038F009126E1226E20FAD
:1004A000136E320F156E10500F0B132613261526E0
:1004B000E90F146E142614260F380F0B1426152678
:1004C00014361536151E15360F500F0B152612361D
:1004D000070E116E0A0E14061526FDE313061426E8
:1004E000FDE312061326FDE311061226FDE3EA6A78
:1004F000110EE96E070E1614169CE926000EEA226C
:10050000E950150803E1EA5201E1168CEF50006E44
:1005100008E116BC06D016B813D016B602D0200ECD
:1005200003D016861698300E0026EACF10F0E9CFD9
:100530000FF000C01CF031DE10C0EAFF0FC0E9FF71
:10054000EE5016ACDDD799EF04F00900F6CF10F0AD
:10055000F7CF11F0F5CF1CF020DE10C0F6FF11C070
:10056000F7FF0F2EF2D7A0EF04F01C50B6081C6E58
:10057000036A1DC020F01D8ED8901D321E321F321E
:1005800003320232013200321C2EF6D720AE0BD0DD
:10059000001E011E021E031E002AD8B4012AD8B470
:1005A000022AD8B4032A43EF03F0D8B203D0EA6A90
:1005B000240EE96E006A016A026A036A246A256AE7
:1005C000266A276A23502210211020102CE0200ECA
:1005D000286ED8901C361D361E361F36243625361A
:1005E000263627362350275C08E12250265C05E199
:1005F0002150255C02E12050245C0FE32050245E52
:100600002150D8A0213C255E2250D8A0223C265E55
:100610002350D8A0233C275ED8800036013602360E
:100620000336282ED6D724C0EFFF25C0ECFF26C006
:10063000ECFF27C0ECFF1200E950146E1350166E49
:1006400019E012C01FF011C01EF010C01DF00FC045
:100650001CF0236A226A200E216E820E206EF1DDCC
:1006600003C012F002C011F001C010F000C00FF082
:10067000162EE7D712C01FF011C01EF010C01DF0DB
:100680000FC01CF072D703C012F002C011F001C0FD
:1006900010F000C00FF012AE0DD01406148A0F1E19
:1006A000101E111E121E0F2AD8B4102AD8B4112AF7
:1006B000D8B4122A3B0E1B6E9A0E1A6ECA0E196E11
:1006C000186A0A0E166E1350D8B4142AD882EA6A31
:1006D0000F0EE96E12C01FF011C01EF010C01DF009
:1006E0000FC01CF01BC023F01AC022F019C021F06B
:1006F00018C020F05ADF015000520FE11328165C99
:100700000CE014500CE00F0B165C01E037E214BE55
:1007100035D014BC04D0200E2DD0200E141614AAEF
:100720000CD0149A1350D8A414060050146E2D0E39
:100730001C6E33DD1450006E146A1350165C0AE10F
:100740000050146E2E0E1C6E28DD1450006E200E0C
:100750001416000E300E14AA0DD0149A1350D8A4FB
:1007600014060050146E2D0E1C6E17DD1450006E12
:10077000146A300E002600C01CF00FDDD8921BC09A
:100780001FF01AC01EF019C01DF018C01CF0236A1B
:10079000226A216A0A0E206E08DF03C01BF002C025
:1007A0001AF001C019F000C018F0162E8FD71200F1
:1007B000F86AD09EC150C00B0F09C16E070EB46E0F
:1007C000C050C00B0709C06EC08EC280C150C00BA4
:1007D0000E09C16E000E016EC250C30B0110C26E35
:1007E0000A0E1D6E25DC8CD4640E1D6E21DC040EF9
:1007F000F66E000EF76EF9D4020E0F6EFA0E1D6E35
:1008000017DC0F2EFBD7066A056A0A6A096A086AAE
:10081000076A0E6A0D6A0C6A0B6AC282C2B2FED700
:10082000C3CF05F0C4CF06F006C010F005C00FF02E
:10083000EDDC1F6A1E6A200E1D6E810E1C6E03C049
:1008400023F002C022F001C021F000C020F0F9DC4A
:1008500003C012F002C011F001C010F000C00FF090
:1008600003C01FF002C01EF001C01DF000C01CF04C
:10087000236A226A480E216E850E206EE2DC03C0D8
:1008800012F002C011F001C010F000C00FF003C060
:1008900016F002C015F001C014F000C013F01A6A7F
:1008A000196A186A890E176E45DD03C00AF002C086
:1008B00009F001C008F000C007F006C010F005C044
:1008C0000FF0A4DC1F6A1E6A200E1D6E810E1C6EC6
:1008D00003C023F002C022F001C021F000C020F0CC
:1008E000B0DC03C012F002C011F001C010F000C073
:1008F0000FF003C016F002C015F001C014F000C0E4
:1009000013F01A6A196A186A890E176E13DD03C08C
:100910000EF002C00DF001C00CF000C00BF00C0E88
:100920001C6E3BDC100EE96E06C010F005C00FF027
:10093000AED51E0EF66E000EF76E060E0F6E05D6C5
:10094000890EE96E0EC012F00DC011F00CC010F04F
:100950000BC00FF0040E136E6FDE560E1C6E1DDC06
:100960000A0E1C6E1ADC890EE96E0AC012F009C06C
:1009700011F008C010F007C00FF0020E136E5CDE1D
:10098000200E1C6E0ADC430E1C6E07DCC80E1D6EAA
:0809900018EC00F042D703004F
:020000040030CA
:0E00000004CC380E0087A1000FC00FE00F40A7
:00000001FF
;PIC18LF4550
;CRC=30B0  CREATED="19-abr-18 12:31"
