:1000000015EF00F0EA6A060EE96EEF500DE0060EFD
:10001000016E006A002EFED7012EFBD77B0E006E0C
:10002000002EFED7EF2EF3D71200F86AD09EC150F3
:10003000C00B0F09C16E070EB46E000E936E8A805E
:10004000020E056EFA0E066EDDDF052EFBD78A84E2
:10005000020E056EFA0E066ED5DF052EFBD78A88D6
:10006000020E056EFA0E066ECDDF052EFBD78A8CCA
:10007000020E056EFA0E066EC5DF052EFBD78A90BE
:100080008A948A988A9C020E056EFA0E066EBADF72
:08009000052EFBD7D4D70300B5
:020000040030CA
:0E00000004CC380E0087A1000FC00FE00F40A7
:00000001FF
;PIC18F4550
;CRC=1344  CREATED="21-mar-18 19:41"
