:100000003FEF00F0F76A140FF66E000EF7220900BA
:10001000F550120001020408F76A280FF66E000E70
:10002000F7220900F550120008040201F76A3C0F9C
:10003000F66E000EF7220900F550120003060A09B9
:10004000F76A500FF66E000EF7220900F550120005
:1000500001030206040C0809EA6A0A0EE96EEF5071
:100060000DE0060E016E006A002EFED7012EFBD7B2
:100070007B0E006E002EFED7EF2EF3D71200F86A2B
:10008000D09EC150C00B0F09C16E070EB46E000E9A
:10009000956E8C6AFF0E936E8A6A812C16D0056A63
:1000A0000550030812E3036A0550F2CF09F0F29EEF
:1000B000B3DF09BEF28E8C6E020E096EFA0E0A6E66
:1000C000CBDF092EFBD7052AEBD78150020816E1BA
:1000D000066A0650030812E3036A0650F2CF09F0DD
:1000E000F29E90DF09BEF28E8C6E020E096EFA0E41
:1000F0000A6EB2DF092EFBD7062AEBD7815004081F
:1001000016E1076A0750070812E3036A0750F2CFA7
:1001100009F0F29E95DF09BEF28E8C6E020E096E1A
:10012000FA0E0A6E99DF092EFBD7072AEBD781500A
:10013000080816E1086A0850030812E3036A085029
:10014000F2CF09F0F29E72DF09BEF28E8C6E020EC3
:10015000096EFA0E0A6E80DF092EFBD7082AEBD74C
:040160009CD7030025
:020000040030CA
:0E00000004CC380E0087A1000FC00FE00F40A7
:00000001FF
;PIC18F4550
;CRC=A11F  CREATED="24-abr-18 13:15"
