:1000000020EF00F0F76A140FF66E000EF7220900D9
:10001000F550120001020408EA6A060EE96EEF507C
:100020000DE0060E016E006A002EFED7012EFBD7F2
:100030007B0E006E002EFED7EF2EF3D73BEF00F0C5
:10004000F86AD09EC150C00B0F09C16E070EB46E86
:10005000000E956E8C6A056A055003080EE3036A6C
:100060000550F2CF06F0F29ECDDF06BEF28E8C6E0A
:0E007000320E066ED1D7052AEFD7EDD703006A
:020000040030CA
:0E00000004CC380E0087A1000FC00FE00F40A7
:00000001FF
;PIC18F4550
;CRC=90BE  CREATED="24-abr-18 00:55"
