:10000000F8EF01F08E0E006E0FC001F00EC002F08E
:10001000036A015209E102C001F0026A080E005EA3
:10002000015202E1006A08D0D89001BE04D0023625
:1000300001360006F9D7019E2AEF02F00E50D8B41F
:1000400071D0006E1250D8B46DD0002604E3810E3A
:10005000002668E204D07F0E005E64E363E00FC018
:1000600016F01350161A0F8E138E11501502F4CF7E
:1000700018F010501402F4CF03F0F3CF17F015026C
:10008000F3501826F4501722000E032211501402C8
:10009000F3501826F4501722000E026A032202229F
:1000A0000F501502F3501726F4500322000E0222BF
:1000B0000F501402F3500326F4500222000E016A7E
:1000C000012211501302F3501726F4500322000EA0
:1000D0000222012210501302F3500326F450022290
:1000E000000E01220F501302F3500226F450012299
:1000F000002A01BE05D01736033602360136000647
:10010000000E17AE0AD0032A02220122015005E197
:10011000025003E1035001E1002A16BE018E16AE23
:10012000019E04D0006A016A026A036A3BEF02F092
:10013000800ED8B2171A1C6A1D6A13C01BF0175024
:100140001B1A1250D8B4DCD01A6E006E1650D8B4F8
:10015000E0D01A5ED8B481D03DE317C020F0208EE5
:1001600018C01FF019C01EF01D6AD89020321F322F
:100170001E321D321A2EF8D71BAE03D01C80DDD0E4
:100180001C901A901C88EA6A150EE96EE9D01C983A
:100190001BBE0AD01AA013D020321F321E321D32CD
:1001A000002AD8B4C5D00BD020BE0CD0D8901D36B4
:1001B0001E361F3620360006D8B4BAD0F5D71C8CB0
:1001C0006BD01C9C13C01BF013AE02D0208EA9D0A4
:1001D000209EA7D016C01AF016C000F012501A5E6A
:1001E00013C020F0208E14C01FF015C01EF01D6A31
:1001F000D89020321F321E321D321A2EF8D71BAE75
:1002000003D01C829AD01C921A901C8AEA6A190E9A
:10021000E96EA6D01C9A1BBE0AD01AA013D02032B9
:100220001F321E321D32002AD8B482D00BD020BE1D
:100230000CD0D8901D361E361F3620360006D8B496
:1002400077D0F5D71C8E28D01C9E17C01BF017AE98
:1002500002D0208E66D0209E64D017C020F0208E61
:1002600018C01FF019C01EF01BAE04D0209E1C84C5
:1002700064D01C941D6A1A90EA6A150EE96E70D05B
:100280001BBE1CD013C01BF01AA006D020321F3298
:100290001E321D32002A4CE01DAE0BD01E2A09E191
:1002A0001F2A07E1202A05E120321F321E32002AD0
:1002B0003FE01CBC86D71CBEC7D71CD0800E201ABE
:1002C00020AE04D03AD017C01BF00AD013C01BF0E8
:1002D000205206E11F5204E11E5202E1006A21D0C1
:1002E00020BE08D0D8901D361E361F362036002E70
:1002F000F7D71ED01BAE02D0208E13D0209E11D077
:1003000016C000F017C020F018C01FF019C01EF072
:1003100008D012C000F013C020F014C01FF015C0A8
:100320001EF020C001F01FC002F01EC003F034D048
:10033000006A016A026A036A2FD01D6A1E1E1F1E10
:10034000201E1D1E1D2A05E11E2A03E11F2A01E1B0
:10035000202A1CB015D71CB256D71CB48AD7B3D7E5
:10036000EF501E2605E31F2A03E1202AD8B41A8085
:10037000ED52EF501F2603E3202AD8B41A80ED5225
:10038000EF50EFBE01D0800A2026D8B01A801CB8EA
:10039000FED61CBA3FD774D753EF02F08E0E006E14
:1003A0000E50005E0FC002F010C001F0028E00522D
:1003B00009E0D890025202E1015204E00232013217
:1003C000002EF7D70FAE05D0011E021E012AD8B4A9
:1003D000022A5CEF02F0030E0F5E09E3EA6A0F0ED9
:1003E000E96EEF5004E001D000D0EF2EFDD71200EF
:1003F000F86AD09EC150C00B0F09C16E070EB46ED3
:10040000000E956E8C6A4E0E066E200E056EC05064
:10041000C00B0709C06EC08EC280C150C00B0E0950
:10042000C16E000E016EC250C30B0110C26E100EE1
:10043000006E002EFED70000C282C2B2FED7C4CF2B
:1004400003F0C3CF07F0C4CF08F008C00FF007C017
:100450000EF0D8D5890E116E250E106E160E0F6E89
:100460007F0E0E6E03C015F002C014F001C013F031
:1004700000C012F0E3D503C011F002C010F001C0BB
:100480000FF000C00EF0D89203C015F002C014F0B7
:1004900001C013F000C012F0196A186A480E176EF6
:1004A000880E166E45D603C011F002C010F001C0D0
:1004B0000FF000C00EF072D702C00AF001C009F0C0
:1004C0000950055C0B6E0A5006580C6E0D6A0D50F3
:1004D00031081CE38C800AC00EF00E2A0E06D8B438
:1004E00003D00F6878DFFAD709C00FF074DF8C9063
:1004F0000CC00EF00E2A0E06D8B403D00F686BDFC6
:10050000FAD70BC00FF067DF0D2AE1D795D70300AC
:020000040030CA
:0E00000004CC380E0087A1000FC00FE00F40A7
:00000001FF
;PIC18F4550
;CRC=AD6F  CREATED="08-may-18 03:06"
