:10000000F7EF00F00C43617267616E646F002A00C5
:100010002B00EA6A0B0EE96EEF500DE0060E016E42
:10002000006A002EFED7012EFBD77B0E006E002E3D
:10003000FED7EF2EF3D712001038F00B006E0F0E24
:100040008A1400108A6E00008A80020E006E002E54
:10005000FED700D000008A9012008150006E003858
:100060000F0B016E12000F0E9314F009936E8A8429
:1000700000008A800000F1DF01C010F08A900000CB
:100080008A8000D000D00000E8DF01C00FF08A9025
:100090000F0E9314936E1038006EF00E0016005081
:1000A0000F10016E59EF00F09390939293948A92FF
:1000B000DAD701C00FF001BEFBD78A920DB08A8259
:1000C00000008A9400008A900E380F6E0F0E0F16F3
:1000D0000FC010F0B1DF0E500F0B0F6E106EACDFC3
:1000E0001200280E076E0C0E086E010E096E060E29
:1000F0000A6E8A908A928A940F0E9314936E93904C
:10010000939293940F0E0B6E84DF010E066E0650D1
:10011000030808E3030E106E8FDF050E0B6E79DF08
:10012000062AF5D7020E106E87DF050E0B6E71DF03
:10013000066A065003080FE3036A0650070FE96ECC
:10014000000E0320EA6EEFCF0BF00D6A0BC00EF02D
:10015000ABDF062AEED700EF01F00A2C01D003D066
:10016000400E0B6E01D00B6A010E095C0B260B5082
:1001700080090C6E0D6A0E6E97DF12000850070A98
:1001800007E00B0A0AE0060A10E0020A14E018D0A1
:10019000010E096E0A6EE1DF18D00D6A010E0E6EB7
:1001A00083DF020E0B6E35DF10D0010E096E020EDA
:1001B0000A6ED3DF0AD00D6A100E0E6E75DF05D001
:1001C000010E0D6E08C00EF06FDFF1EF00F00900B8
:1001D000F5520CE0F6CF06F0F7CF07F0F5CF08F0B8
:1001E000CDD706C0F6FF07C0F7FFF1D71200F86AB7
:1001F000D09EC150C00B0F09C16E070EB46E71D7EF
:100200000A0E0B6E06DF040EF66E000EF76EDFDFD1
:100210000A0E0B6EFEDE010E056E0550100813E38C
:1002200005C009F0020E0A6E98DF0E0EF66E000E83
:10023000F76ECDDF020E066EFA0E0B6EEADE062EAC
:10024000FBD7052AEAD7010E056E0550100813E307
:1002500005C009F0020E0A6E80DF100EF66E000E69
:10026000F76EB5DF020E066EFA0E0B6ED2DE062EAC
:0A027000FBD7052AEAD7C7D7030021
:020000040030CA
:0E00000004CC380E0087A1000FC00FE00F40A7
:00000001FF
;PIC18F4550
;CRC=F1E2  CREATED="17-abr-18 13:49"
