:10000000C6EF01F0F76A140FF66E000EF722090032
:10001000F55012003734314E383532303936333DF1
:100020002F2A2D2BF76A340FF66E000EF7220900E7
:10003000F5501200353637380C4269656E76656EBC
:1000400069646F0A446967697465206C6120636C38
:1000500061766500436C617665000C41627269658A
:100060006E646F0A6573636F74696C6C61000C4534
:100070006C207465736F726F0A6573207475796F85
:1000800000000C4269656E76656E69646F0A4469AA
:1000900067697465206C6120636C617665000C4350
:1000A0006C61766520496E636F727265637461007E
:1000B0000C4269656E76656E69646F0A44696769AA
:1000C0007465206C6120636C61766500EA6A150EC8
:1000D000E96EEF500DE0060E016E006A002EFED7AD
:1000E000012EFBD77B0E006E002EFED7EF2EF3D72E
:1000F00012001A38F00B006E0F0E8C1400108C6E6C
:1001000000008C80020E006E002EFED700D0000092
:100110008C9012008350006E00380F0B016E12009D
:100120000F0E9514F009956E8C8400008C800000F1
:10013000F1DF01C01AF08C9000008C8000D000D05C
:100140000000E8DF01C019F08C900F0E9514956E39
:100150001A38006EF00E001600501910016EB6EF3E
:1001600000F09590959295948C92DAD701C019F091
:1001700001BEFBD78C9217B08C8200008C940000DB
:100180008C901838196E0F0E191619C01AF0B1DFBD
:1001900018500F0B196E1A6EACDF1200280E116E7C
:1001A0000C0E126E010E136E060E146E8C908C9255
:1001B0008C940F0E9514956E9590959295940F0EC4
:1001C000156E84DF010E106E1050030808E3030E55
:1001D0001A6E8FDF050E156E79DF102AF5D7020E25
:1001E0001A6E87DF050E156E71DF106A1050030856
:1001F0000FE3036A1050110FE96E000E0320EA6E40
:10020000EFCF15F0176A15C018F0ABDF102AEED744
:10021000D4EF01F0D8EF01F0142C01D003D0400E40
:10022000156E01D0156A010E135C15261550800954
:10023000166E176A186E95DF12001250070A07E053
:100240000B0A0AE0060A10E0020A14E018D0010EB8
:10025000136E146EE1DF18D0176A010E186E81DF7D
:10026000020E156E33DF10D0010E136E020E146EE7
:10027000D3DF0AD0176A100E186E73DF05D0010E97
:10028000176E12C018F06DDF12000900F5520CE075
:10029000F6CF10F0F7CF11F0F5CF12F0CEDF10C08F
:1002A000F6FF11C0F7FFF1D71200106A042A0450BC
:1002B000210855E20750FC0F12E2040FB5EF01F0E0
:1002C000FE0E936E816E0BD0FD0E936E816E07D085
:1002D000FB0E936E816E03D0F70E936E816E05A0B8
:1002E00009D08150F00BF00804E1059006C010F031
:1002F000066A34D08150F00BF0082BE08150100BCF
:1003000002E1116A11D08150200B03E1010E116E40
:100310000BD08150400B03E1020E116E05D08150CD
:10032000800B02E1030E116E1150040DF350136A9D
:10033000126E036A07501224016E135003220150FB
:10034000F2CF12F0F29E5EDE12BEF28E066E0580D5
:1003500005D0072A0750040801E1076A046AFF0E66
:10036000936E10C001F0E3EF01F0E824F76AF7366E
:10037000850FF66E030EF7220A00F550FA6E08009C
:10038000F550F96EC002C802D002D802F86AD09EB9
:10039000C150C00B0F09C16E070EB46E0590046A00
:1003A0000590066A076AFAD6640E156E8FDE32D79C
:1003B000F19E000E946E8B6A380EF66E000EF76E8C
:1003C00064DF0D6A72D701C00CF00C52D8B47BD038
:1003D0000D520DE10C0E126E30DF050E136E010E84
:1003E000146E1ADF540EF66E000EF76E4EDF036ABF
:1003F0000D50080FE96E000E0320EA6E0CC0EFFFEF
:100400000D2A050E0D24106E136E020E146E04DFFD
:100410002A0E126E12DF0D50040855E1010E0E6E09
:10042000960E156E53DE0F6A0F50030816E3036A2B
:100430000F50F2CF10F0F29EF5DD10BEF28E106E6E
:10044000036A0F50080FE96E000E0320EA6EEF50AA
:10045000105C01E00E6A0F2AE7D70E2C22D0010EA5
:100460000E6E5A0EF66E000EF76E0FDF8B80040EC6
:10047000106EFA0E156E2ADE102EFBD78B906E0EC4
:10048000F66E000EF76E01DF040E106EFA0E156E9A
:100490001DDE102EFBD7820EF66E000EF76EF5DE17
:1004A00011D09E0EF66E000EF76EEFDE020E106E8D
:1004B000960E156E0BDE102EFBD7B00EF66E000EEC
:0A04C000F76EE3DE0D6A7ED703003D
:020000040030CA
:0E00000004CC380E0087A1000FC00FE00F40A7
:00000001FF
;PIC18F4550
;CRC=9A31  CREATED="24-abr-18 15:22"
